{
    "_format": "hh-sol-artifact-1",
    "contractName": "JankenPortal",
    "sourceName": "contracts/JankenPortal.sol",
    "abi": [
        {
            "inputs": [],
            "stateMutability": "payable",
            "type": "constructor"
        },
        {
            "anonymous": false,
            "inputs": [
                {
                    "indexed": true,
                    "internalType": "address",
                    "name": "from",
                    "type": "address"
                },
                {
                    "indexed": false,
                    "internalType": "string",
                    "name": "hand",
                    "type": "string"
                },
                {
                    "indexed": false,
                    "internalType": "uint256",
                    "name": "timestamp",
                    "type": "uint256"
                },
                {
                    "indexed": false,
                    "internalType": "string",
                    "name": "result",
                    "type": "string"
                }
            ],
            "name": "NewJankeResult",
            "type": "event"
        },
        {
            "inputs": [],
            "name": "getAllJankens",
            "outputs": [
                {
                    "components": [
                        {
                            "internalType": "address",
                            "name": "player",
                            "type": "address"
                        },
                        {
                            "internalType": "string",
                            "name": "hand",
                            "type": "string"
                        },
                        {
                            "internalType": "uint256",
                            "name": "timestamp",
                            "type": "uint256"
                        },
                        {
                            "internalType": "string",
                            "name": "result",
                            "type": "string"
                        }
                    ],
                    "internalType": "struct JankenPortal.Janken[]",
                    "name": "",
                    "type": "tuple[]"
                }
            ],
            "stateMutability": "view",
            "type": "function"
        },
        {
            "inputs": [],
            "name": "getTotalJankens",
            "outputs": [
                {
                    "internalType": "uint256",
                    "name": "",
                    "type": "uint256"
                }
            ],
            "stateMutability": "view",
            "type": "function"
        },
        {
            "inputs": [
                {
                    "internalType": "string",
                    "name": "_hand",
                    "type": "string"
                }
            ],
            "name": "janken",
            "outputs": [],
            "stateMutability": "nonpayable",
            "type": "function"
        },
        {
            "inputs": [
                {
                    "internalType": "address",
                    "name": "",
                    "type": "address"
                }
            ],
            "name": "lastJankenAt",
            "outputs": [
                {
                    "internalType": "uint256",
                    "name": "",
                    "type": "uint256"
                }
            ],
            "stateMutability": "view",
            "type": "function"
        }
    ],
    "bytecode": "0x60806040526200004f6040518060400160405280601981526020017f57652068617665206265656e20636f6e737472756374656421000000000000008152506200007760201b62000bbf1760201c565b606444426200005f91906200017c565b6200006b919062000208565b60018190555062000308565b62000117816040516024016200008e9190620002e4565b6040516020818303038152906040527f41304fac000000000000000000000000000000000000000000000000000000007bffffffffffffffffffffffffffffffffffffffffffffffffffffffff19166020820180517bffffffffffffffffffffffffffffffffffffffffffffffffffffffff83818316178352505050506200011a60201b60201c565b50565b60008151905060006a636f6e736f6c652e6c6f679050602083016000808483855afa5050505050565b6000819050919050565b7f4e487b7100000000000000000000000000000000000000000000000000000000600052601160045260246000fd5b6000620001898262000143565b9150620001968362000143565b9250827fffffffffffffffffffffffffffffffffffffffffffffffffffffffffffffffff03821115620001ce57620001cd6200014d565b5b828201905092915050565b7f4e487b7100000000000000000000000000000000000000000000000000000000600052601260045260246000fd5b6000620002158262000143565b9150620002228362000143565b925082620002355762000234620001d9565b5b828206905092915050565b600081519050919050565b600082825260208201905092915050565b60005b838110156200027c5780820151818401526020810190506200025f565b838111156200028c576000848401525b50505050565b6000601f19601f8301169050919050565b6000620002b08262000240565b620002bc81856200024b565b9350620002ce8185602086016200025c565b620002d98162000292565b840191505092915050565b60006020820190508181036000830152620003008184620002a3565b905092915050565b6116ed80620003186000396000f3fe608060405234801561001057600080fd5b506004361061004c5760003560e01c806378dfdc8d146100515780637e485d851461006d578063cd9ee25f1461008b578063e0364620146100bb575b600080fd5b61006b60048036038101906100669190610f1a565b6100d9565b005b6100756109bb565b6040516100829190610f7c565b60405180910390f35b6100a560048036038101906100a09190610ff5565b6109c4565b6040516100b29190610f7c565b60405180910390f35b6100c36109dc565b6040516100d091906111f4565b60405180910390f35b42601e600460003373ffffffffffffffffffffffffffffffffffffffff1673ffffffffffffffffffffffffffffffffffffffff168152602001908152602001600020546101269190611245565b10610166576040517f08c379a000000000000000000000000000000000000000000000000000000000815260040161015d906112f8565b60405180910390fd5b42600460003373ffffffffffffffffffffffffffffffffffffffff1673ffffffffffffffffffffffffffffffffffffffff168152602001908152602001600020819055506101e96040518060400160405280601081526020017f257320706c617973206a616e6b656e210000000000000000000000000000000081525033610c58565b60016000808282546101fb9190611245565b92505081905550606460015442446102139190611245565b61021d9190611245565b6102279190611347565b60018190555060216001541161053c576102766040518060400160405280600781526020017f257320776f6e210000000000000000000000000000000000000000000000000081525033610c58565b6040518060400160405280600381526020017f77696e0000000000000000000000000000000000000000000000000000000000815250600290805190602001906102c1929190610d1d565b50600360405180608001604052803373ffffffffffffffffffffffffffffffffffffffff16815260200183815260200142815260200160028054610304906113a7565b80601f0160208091040260200160405190810160405280929190818152602001828054610330906113a7565b801561037d5780601f106103525761010080835404028352916020019161037d565b820191906000526020600020905b81548152906001019060200180831161036057829003601f168201915b5050505050815250908060018154018082558091505060019003906000526020600020906004020160009091909190915060008201518160000160006101000a81548173ffffffffffffffffffffffffffffffffffffffff021916908373ffffffffffffffffffffffffffffffffffffffff1602179055506020820151816001019080519060200190610411929190610d1d565b50604082015181600201556060820151816003019080519060200190610438929190610d1d565b50505060006509184e72a000905047811115610489576040517f08c379a00000000000000000000000000000000000000000000000000000000081526004016104809061144b565b60405180910390fd5b60003373ffffffffffffffffffffffffffffffffffffffff16826040516104af9061149c565b60006040518083038185875af1925050503d80600081146104ec576040519150601f19603f3d011682016040523d82523d6000602084013e6104f1565b606091505b5050905080610535576040517f08c379a000000000000000000000000000000000000000000000000000000000815260040161052c90611523565b60405180910390fd5b5050610965565b60015460211080156105515750604260015411155b1561075f576105956040518060400160405280601281526020017f257320656e64656420696e2061207469652e000000000000000000000000000081525033610c58565b6040518060400160405280600481526020017f6472617700000000000000000000000000000000000000000000000000000000815250600290805190602001906105e0929190610d1d565b50600360405180608001604052803373ffffffffffffffffffffffffffffffffffffffff16815260200183815260200142815260200160028054610623906113a7565b80601f016020809104026020016040519081016040528092919081815260200182805461064f906113a7565b801561069c5780601f106106715761010080835404028352916020019161069c565b820191906000526020600020905b81548152906001019060200180831161067f57829003601f168201915b5050505050815250908060018154018082558091505060019003906000526020600020906004020160009091909190915060008201518160000160006101000a81548173ffffffffffffffffffffffffffffffffffffffff021916908373ffffffffffffffffffffffffffffffffffffffff1602179055506020820151816001019080519060200190610730929190610d1d565b50604082015181600201556060820151816003019080519060200190610757929190610d1d565b505050610964565b61079e6040518060400160405280600f81526020017f257320646964206e6f742077696e2e000000000000000000000000000000000081525033610c58565b6040518060400160405280600481526020017f6c6f736500000000000000000000000000000000000000000000000000000000815250600290805190602001906107e9929190610d1d565b50600360405180608001604052803373ffffffffffffffffffffffffffffffffffffffff1681526020018381526020014281526020016002805461082c906113a7565b80601f0160208091040260200160405190810160405280929190818152602001828054610858906113a7565b80156108a55780601f1061087a576101008083540402835291602001916108a5565b820191906000526020600020905b81548152906001019060200180831161088857829003601f168201915b5050505050815250908060018154018082558091505060019003906000526020600020906004020160009091909190915060008201518160000160006101000a81548173ffffffffffffffffffffffffffffffffffffffff021916908373ffffffffffffffffffffffffffffffffffffffff1602179055506020820151816001019080519060200190610939929190610d1d565b50604082015181600201556060820151816003019080519060200190610960929190610d1d565b5050505b5b3373ffffffffffffffffffffffffffffffffffffffff167f6a5ec1cbbc39b87e0d425f5477c1d4720cdfccc0ea00aacdde21349a26096b8d824260026040516109b093929190611611565b60405180910390a250565b60008054905090565b60046020528060005260406000206000915090505481565b60606003805480602002602001604051908101604052809291908181526020016000905b82821015610bb657838290600052602060002090600402016040518060800160405290816000820160009054906101000a900473ffffffffffffffffffffffffffffffffffffffff1673ffffffffffffffffffffffffffffffffffffffff1673ffffffffffffffffffffffffffffffffffffffff168152602001600182018054610a89906113a7565b80601f0160208091040260200160405190810160405280929190818152602001828054610ab5906113a7565b8015610b025780601f10610ad757610100808354040283529160200191610b02565b820191906000526020600020905b815481529060010190602001808311610ae557829003601f168201915b5050505050815260200160028201548152602001600382018054610b25906113a7565b80601f0160208091040260200160405190810160405280929190818152602001828054610b51906113a7565b8015610b9e5780601f10610b7357610100808354040283529160200191610b9e565b820191906000526020600020905b815481529060010190602001808311610b8157829003601f168201915b50505050508152505081526020019060010190610a00565b50505050905090565b610c5581604051602401610bd39190611656565b6040516020818303038152906040527f41304fac000000000000000000000000000000000000000000000000000000007bffffffffffffffffffffffffffffffffffffffffffffffffffffffff19166020820180517bffffffffffffffffffffffffffffffffffffffffffffffffffffffff8381831617835250505050610cf4565b50565b610cf08282604051602401610c6e929190611687565b6040516020818303038152906040527f319af333000000000000000000000000000000000000000000000000000000007bffffffffffffffffffffffffffffffffffffffffffffffffffffffff19166020820180517bffffffffffffffffffffffffffffffffffffffffffffffffffffffff8381831617835250505050610cf4565b5050565b60008151905060006a636f6e736f6c652e6c6f679050602083016000808483855afa5050505050565b828054610d29906113a7565b90600052602060002090601f016020900481019282610d4b5760008555610d92565b82601f10610d6457805160ff1916838001178555610d92565b82800160010185558215610d92579182015b82811115610d91578251825591602001919060010190610d76565b5b509050610d9f9190610da3565b5090565b5b80821115610dbc576000816000905550600101610da4565b5090565b6000604051905090565b600080fd5b600080fd5b600080fd5b600080fd5b6000601f19601f8301169050919050565b7f4e487b7100000000000000000000000000000000000000000000000000000000600052604160045260246000fd5b610e2782610dde565b810181811067ffffffffffffffff82111715610e4657610e45610def565b5b80604052505050565b6000610e59610dc0565b9050610e658282610e1e565b919050565b600067ffffffffffffffff821115610e8557610e84610def565b5b610e8e82610dde565b9050602081019050919050565b82818337600083830152505050565b6000610ebd610eb884610e6a565b610e4f565b905082815260208101848484011115610ed957610ed8610dd9565b5b610ee4848285610e9b565b509392505050565b600082601f830112610f0157610f00610dd4565b5b8135610f11848260208601610eaa565b91505092915050565b600060208284031215610f3057610f2f610dca565b5b600082013567ffffffffffffffff811115610f4e57610f4d610dcf565b5b610f5a84828501610eec565b91505092915050565b6000819050919050565b610f7681610f63565b82525050565b6000602082019050610f916000830184610f6d565b92915050565b600073ffffffffffffffffffffffffffffffffffffffff82169050919050565b6000610fc282610f97565b9050919050565b610fd281610fb7565b8114610fdd57600080fd5b50565b600081359050610fef81610fc9565b92915050565b60006020828403121561100b5761100a610dca565b5b600061101984828501610fe0565b91505092915050565b600081519050919050565b600082825260208201905092915050565b6000819050602082019050919050565b61105781610fb7565b82525050565b600081519050919050565b600082825260208201905092915050565b60005b8381101561109757808201518184015260208101905061107c565b838111156110a6576000848401525b50505050565b60006110b78261105d565b6110c18185611068565b93506110d1818560208601611079565b6110da81610dde565b840191505092915050565b6110ee81610f63565b82525050565b600060808301600083015161110c600086018261104e565b506020830151848203602086015261112482826110ac565b915050604083015161113960408601826110e5565b506060830151848203606086015261115182826110ac565b9150508091505092915050565b600061116a83836110f4565b905092915050565b6000602082019050919050565b600061118a82611022565b611194818561102d565b9350836020820285016111a68561103e565b8060005b858110156111e257848403895281516111c3858261115e565b94506111ce83611172565b925060208a019950506001810190506111aa565b50829750879550505050505092915050565b6000602082019050818103600083015261120e818461117f565b905092915050565b7f4e487b7100000000000000000000000000000000000000000000000000000000600052601160045260246000fd5b600061125082610f63565b915061125b83610f63565b9250827fffffffffffffffffffffffffffffffffffffffffffffffffffffffffffffffff038211156112905761128f611216565b5b828201905092915050565b600082825260208201905092915050565b7f5761697420333073000000000000000000000000000000000000000000000000600082015250565b60006112e260088361129b565b91506112ed826112ac565b602082019050919050565b60006020820190508181036000830152611311816112d5565b9050919050565b7f4e487b7100000000000000000000000000000000000000000000000000000000600052601260045260246000fd5b600061135282610f63565b915061135d83610f63565b92508261136d5761136c611318565b5b828206905092915050565b7f4e487b7100000000000000000000000000000000000000000000000000000000600052602260045260246000fd5b600060028204905060018216806113bf57607f821691505b602082108114156113d3576113d2611378565b5b50919050565b7f547279696e6720746f207769746864726177206d6f7265206d6f6e657920746860008201527f616e2074686520636f6e7472616374206861732e000000000000000000000000602082015250565b600061143560348361129b565b9150611440826113d9565b604082019050919050565b6000602082019050818103600083015261146481611428565b9050919050565b600081905092915050565b50565b600061148660008361146b565b915061149182611476565b600082019050919050565b60006114a782611479565b9150819050919050565b7f4661696c656420746f207769746864726177206d6f6e65792066726f6d20636f60008201527f6e74726163742e00000000000000000000000000000000000000000000000000602082015250565b600061150d60278361129b565b9150611518826114b1565b604082019050919050565b6000602082019050818103600083015261153c81611500565b9050919050565b600061154e8261105d565b611558818561129b565b9350611568818560208601611079565b61157181610dde565b840191505092915050565b60008190508160005260206000209050919050565b6000815461159e816113a7565b6115a8818661129b565b945060018216600081146115c357600181146115d557611608565b60ff1983168652602086019350611608565b6115de8561157c565b60005b83811015611600578154818901526001820191506020810190506115e1565b808801955050505b50505092915050565b6000606082019050818103600083015261162b8186611543565b905061163a6020830185610f6d565b818103604083015261164c8184611591565b9050949350505050565b600060208201905081810360008301526116708184611543565b905092915050565b61168181610fb7565b82525050565b600060408201905081810360008301526116a18185611543565b90506116b06020830184611678565b939250505056fea26469706673582212203365a8cc8a82b48a72193246669d25c793f5c8fdba7cc9d8e182844074ea3e8f64736f6c63430008090033",
    "linkReferences": {},
    "deployedLinkReferences": {}
}